{
  "_format": "hh-sol-artifact-1",
  "contractName": "RewardChest",
  "sourceName": "contracts/RewardChest.sol",
  "abi": [
    {
      "inputs": [
        {
          "internalType": "address",
          "name": "_vrfAddress",
          "type": "address"
        }
      ],
      "stateMutability": "nonpayable",
      "type": "constructor"
    },
    {
      "anonymous": false,
      "inputs": [
        {
          "indexed": true,
          "internalType": "address",
          "name": "account",
          "type": "address"
        },
        {
          "indexed": true,
          "internalType": "address",
          "name": "operator",
          "type": "address"
        },
        {
          "indexed": false,
          "internalType": "bool",
          "name": "approved",
          "type": "bool"
        }
      ],
      "name": "ApprovalForAll",
      "type": "event"
    },
    {
      "anonymous": false,
      "inputs": [
        {
          "indexed": true,
          "internalType": "address",
          "name": "previousOwner",
          "type": "address"
        },
        {
          "indexed": true,
          "internalType": "address",
          "name": "newOwner",
          "type": "address"
        }
      ],
      "name": "OwnershipTransferred",
      "type": "event"
    },
    {
      "anonymous": false,
      "inputs": [
        {
          "indexed": true,
          "internalType": "address",
          "name": "operator",
          "type": "address"
        },
        {
          "indexed": true,
          "internalType": "address",
          "name": "from",
          "type": "address"
        },
        {
          "indexed": true,
          "internalType": "address",
          "name": "to",
          "type": "address"
        },
        {
          "indexed": false,
          "internalType": "uint256[]",
          "name": "ids",
          "type": "uint256[]"
        },
        {
          "indexed": false,
          "internalType": "uint256[]",
          "name": "values",
          "type": "uint256[]"
        }
      ],
      "name": "TransferBatch",
      "type": "event"
    },
    {
      "anonymous": false,
      "inputs": [
        {
          "indexed": true,
          "internalType": "address",
          "name": "operator",
          "type": "address"
        },
        {
          "indexed": true,
          "internalType": "address",
          "name": "from",
          "type": "address"
        },
        {
          "indexed": true,
          "internalType": "address",
          "name": "to",
          "type": "address"
        },
        {
          "indexed": false,
          "internalType": "uint256",
          "name": "id",
          "type": "uint256"
        },
        {
          "indexed": false,
          "internalType": "uint256",
          "name": "value",
          "type": "uint256"
        }
      ],
      "name": "TransferSingle",
      "type": "event"
    },
    {
      "anonymous": false,
      "inputs": [
        {
          "indexed": false,
          "internalType": "string",
          "name": "value",
          "type": "string"
        },
        {
          "indexed": true,
          "internalType": "uint256",
          "name": "id",
          "type": "uint256"
        }
      ],
      "name": "URI",
      "type": "event"
    },
    {
      "inputs": [
        {
          "internalType": "address",
          "name": "account",
          "type": "address"
        },
        {
          "internalType": "uint256",
          "name": "id",
          "type": "uint256"
        }
      ],
      "name": "balanceOf",
      "outputs": [
        {
          "internalType": "uint256",
          "name": "",
          "type": "uint256"
        }
      ],
      "stateMutability": "view",
      "type": "function"
    },
    {
      "inputs": [
        {
          "internalType": "address[]",
          "name": "accounts",
          "type": "address[]"
        },
        {
          "internalType": "uint256[]",
          "name": "ids",
          "type": "uint256[]"
        }
      ],
      "name": "balanceOfBatch",
      "outputs": [
        {
          "internalType": "uint256[]",
          "name": "",
          "type": "uint256[]"
        }
      ],
      "stateMutability": "view",
      "type": "function"
    },
    {
      "inputs": [],
      "name": "digitalWearable1DropRate",
      "outputs": [
        {
          "internalType": "uint256",
          "name": "",
          "type": "uint256"
        }
      ],
      "stateMutability": "view",
      "type": "function"
    },
    {
      "inputs": [
        {
          "internalType": "uint256",
          "name": "",
          "type": "uint256"
        }
      ],
      "name": "digitalWearable1Supply",
      "outputs": [
        {
          "internalType": "uint256",
          "name": "",
          "type": "uint256"
        }
      ],
      "stateMutability": "view",
      "type": "function"
    },
    {
      "inputs": [],
      "name": "digitalWearable2DropRate",
      "outputs": [
        {
          "internalType": "uint256",
          "name": "",
          "type": "uint256"
        }
      ],
      "stateMutability": "view",
      "type": "function"
    },
    {
      "inputs": [
        {
          "internalType": "uint256",
          "name": "",
          "type": "uint256"
        }
      ],
      "name": "digitalWearable2Supply",
      "outputs": [
        {
          "internalType": "uint256",
          "name": "",
          "type": "uint256"
        }
      ],
      "stateMutability": "view",
      "type": "function"
    },
    {
      "inputs": [],
      "name": "digitalWearable3DropRate",
      "outputs": [
        {
          "internalType": "uint256",
          "name": "",
          "type": "uint256"
        }
      ],
      "stateMutability": "view",
      "type": "function"
    },
    {
      "inputs": [
        {
          "internalType": "uint256",
          "name": "",
          "type": "uint256"
        }
      ],
      "name": "digitalWearable3Supply",
      "outputs": [
        {
          "internalType": "uint256",
          "name": "",
          "type": "uint256"
        }
      ],
      "stateMutability": "view",
      "type": "function"
    },
    {
      "inputs": [
        {
          "internalType": "address",
          "name": "account",
          "type": "address"
        },
        {
          "internalType": "address",
          "name": "operator",
          "type": "address"
        }
      ],
      "name": "isApprovedForAll",
      "outputs": [
        {
          "internalType": "bool",
          "name": "",
          "type": "bool"
        }
      ],
      "stateMutability": "view",
      "type": "function"
    },
    {
      "inputs": [
        {
          "internalType": "address",
          "name": "account",
          "type": "address"
        }
      ],
      "name": "mintRewardChest",
      "outputs": [],
      "stateMutability": "nonpayable",
      "type": "function"
    },
    {
      "inputs": [
        {
          "internalType": "address",
          "name": "account",
          "type": "address"
        },
        {
          "internalType": "uint256",
          "name": "tokenId",
          "type": "uint256"
        }
      ],
      "name": "openRewardChest",
      "outputs": [],
      "stateMutability": "nonpayable",
      "type": "function"
    },
    {
      "inputs": [],
      "name": "owner",
      "outputs": [
        {
          "internalType": "address",
          "name": "",
          "type": "address"
        }
      ],
      "stateMutability": "view",
      "type": "function"
    },
    {
      "inputs": [],
      "name": "renounceOwnership",
      "outputs": [],
      "stateMutability": "nonpayable",
      "type": "function"
    },
    {
      "inputs": [
        {
          "internalType": "address",
          "name": "from",
          "type": "address"
        },
        {
          "internalType": "address",
          "name": "to",
          "type": "address"
        },
        {
          "internalType": "uint256[]",
          "name": "ids",
          "type": "uint256[]"
        },
        {
          "internalType": "uint256[]",
          "name": "amounts",
          "type": "uint256[]"
        },
        {
          "internalType": "bytes",
          "name": "data",
          "type": "bytes"
        }
      ],
      "name": "safeBatchTransferFrom",
      "outputs": [],
      "stateMutability": "nonpayable",
      "type": "function"
    },
    {
      "inputs": [
        {
          "internalType": "address",
          "name": "from",
          "type": "address"
        },
        {
          "internalType": "address",
          "name": "to",
          "type": "address"
        },
        {
          "internalType": "uint256",
          "name": "id",
          "type": "uint256"
        },
        {
          "internalType": "uint256",
          "name": "amount",
          "type": "uint256"
        },
        {
          "internalType": "bytes",
          "name": "data",
          "type": "bytes"
        }
      ],
      "name": "safeTransferFrom",
      "outputs": [],
      "stateMutability": "nonpayable",
      "type": "function"
    },
    {
      "inputs": [
        {
          "internalType": "address",
          "name": "operator",
          "type": "address"
        },
        {
          "internalType": "bool",
          "name": "approved",
          "type": "bool"
        }
      ],
      "name": "setApprovalForAll",
      "outputs": [],
      "stateMutability": "nonpayable",
      "type": "function"
    },
    {
      "inputs": [
        {
          "internalType": "bytes4",
          "name": "interfaceId",
          "type": "bytes4"
        }
      ],
      "name": "supportsInterface",
      "outputs": [
        {
          "internalType": "bool",
          "name": "",
          "type": "bool"
        }
      ],
      "stateMutability": "view",
      "type": "function"
    },
    {
      "inputs": [
        {
          "internalType": "address",
          "name": "newOwner",
          "type": "address"
        }
      ],
      "name": "transferOwnership",
      "outputs": [],
      "stateMutability": "nonpayable",
      "type": "function"
    },
    {
      "inputs": [
        {
          "internalType": "uint256",
          "name": "",
          "type": "uint256"
        }
      ],
      "name": "uri",
      "outputs": [
        {
          "internalType": "string",
          "name": "",
          "type": "string"
        }
      ],
      "stateMutability": "view",
      "type": "function"
    }
  ],
  "bytecode": "0x60806040523480156200001157600080fd5b506040516200226038038062002260833981810160405260208110156200003757600080fd5b505160408051808201909152601581527f68747470733a2f2f6d657461646174612e6a736f6e0000000000000000000000602082015260006200007962000134565b600080546001600160a01b0319166001600160a01b0383169081178255604051929350917f8be0079c531659141344cd1fd0a4f28419497f9722a3daafe3b4186f6b6457e0908290a350620000d56301ffc9a760e01b62000138565b620000e081620001c0565b620000f2636cdb3d1360e11b62000138565b620001046303a24d0760e21b62000138565b50600a80546001600160a01b039092166001600160a01b0319928316179055600b80549091163317905562000285565b3390565b6001600160e01b0319808216141562000198576040805162461bcd60e51b815260206004820152601c60248201527f4552433136353a20696e76616c696420696e7465726661636520696400000000604482015290519081900360640190fd5b6001600160e01b0319166000908152600160208190526040909120805460ff19169091179055565b8051620001d5906004906020840190620001d9565b5050565b828054600181600116156101000203166002900490600052602060002090601f0160209004810192826200021157600085556200025c565b82601f106200022c57805160ff19168380011785556200025c565b828001600101855582156200025c579182015b828111156200025c5782518255916020019190600101906200023f565b506200026a9291506200026e565b5090565b5b808211156200026a57600081556001016200026f565b611fcb80620002956000396000f3fe608060405234801561001057600080fd5b50600436106101505760003560e01c80638da5cb5b116100cd578063da9fcfad11610081578063f242432a11610066578063f242432a146106cc578063f2fde38b14610797578063f5c40db5146107bd57610150565b8063da9fcfad14610681578063e985e9c51461069e57610150565b8063b49a8b04116100b2578063b49a8b0414610630578063c62c376d1461065c578063d45b989a1461067957610150565b80638da5cb5b146105de578063a22cb4651461060257610150565b80632eb2c2d611610124578063715018a611610109578063715018a6146105a85780637cfe22ec146105b05780638723247f146105b857610150565b80632eb2c2d6146102685780634e1273f41461043157610150565b8062fdd58e1461015557806301ffc9a7146101935780630e89341c146101ce5780632b5ce9b114610260575b600080fd5b6101816004803603604081101561016b57600080fd5b506001600160a01b0381351690602001356107da565b60408051918252519081900360200190f35b6101ba600480360360208110156101a957600080fd5b50356001600160e01b031916610849565b604080519115158252519081900360200190f35b6101eb600480360360208110156101e457600080fd5b5035610868565b6040805160208082528351818301528351919283929083019185019080838360005b8381101561022557818101518382015260200161020d565b50505050905090810190601f1680156102525780820380516001836020036101000a031916815260200191505b509250505060405180910390f35b610181610900565b61042f600480360360a081101561027e57600080fd5b6001600160a01b0382358116926020810135909116918101906060810160408201356401000000008111156102b257600080fd5b8201836020820111156102c457600080fd5b803590602001918460208302840111640100000000831117156102e657600080fd5b919080806020026020016040519081016040528093929190818152602001838360200280828437600092019190915250929594936020810193503591505064010000000081111561033657600080fd5b82018360208201111561034857600080fd5b8035906020019184602083028401116401000000008311171561036a57600080fd5b91908080602002602001604051908101604052809392919081815260200183836020028082843760009201919091525092959493602081019350359150506401000000008111156103ba57600080fd5b8201836020820111156103cc57600080fd5b803590602001918460018302840111640100000000831117156103ee57600080fd5b91908080601f016020809104026020016040519081016040528093929190818152602001838380828437600092019190915250929550610905945050505050565b005b6105586004803603604081101561044757600080fd5b81019060208101813564010000000081111561046257600080fd5b82018360208201111561047457600080fd5b8035906020019184602083028401116401000000008311171561049657600080fd5b91908080602002602001604051908101604052809392919081815260200183836020028082843760009201919091525092959493602081019350359150506401000000008111156104e657600080fd5b8201836020820111156104f857600080fd5b8035906020019184602083028401116401000000008311171561051a57600080fd5b919080806020026020016040519081016040528093929190818152602001838360200280828437600092019190915250929550610c08945050505050565b60408051602080825283518183015283519192839290830191858101910280838360005b8381101561059457818101518382015260200161057c565b505050509050019250505060405180910390f35b61042f610cf4565b610181610dbf565b61042f600480360360208110156105ce57600080fd5b50356001600160a01b0316610dc4565b6105e6610e70565b604080516001600160a01b039092168252519081900360200190f35b61042f6004803603604081101561061857600080fd5b506001600160a01b0381351690602001351515610e80565b61042f6004803603604081101561064657600080fd5b506001600160a01b038135169060200135610f6f565b6101816004803603602081101561067257600080fd5b5035611192565b6101816111a4565b6101816004803603602081101561069757600080fd5b50356111a9565b6101ba600480360360408110156106b457600080fd5b506001600160a01b03813581169160200135166111bb565b61042f600480360360a08110156106e257600080fd5b6001600160a01b03823581169260208101359091169160408201359160608101359181019060a08101608082013564010000000081111561072257600080fd5b82018360208201111561073457600080fd5b8035906020019184600183028401116401000000008311171561075657600080fd5b91908080601f0160208091040260200160405190810160405280939291908181526020018383808284376000920191909152509295506111e9945050505050565b61042f600480360360208110156107ad57600080fd5b50356001600160a01b03166113b4565b610181600480360360208110156107d357600080fd5b50356114d5565b60006001600160a01b0383166108215760405162461bcd60e51b815260040180806020018281038252602b815260200180611ddc602b913960400191505060405180910390fd5b5060009081526002602090815260408083206001600160a01b03949094168352929052205490565b6001600160e01b03191660009081526001602052604090205460ff1690565b60048054604080516020601f60026000196101006001881615020190951694909404938401819004810282018101909252828152606093909290918301828280156108f45780601f106108c9576101008083540402835291602001916108f4565b820191906000526020600020905b8154815290600101906020018083116108d757829003601f168201915b50505050509050919050565b603c81565b81518351146109455760405162461bcd60e51b8152600401808060200182810382526028815260200180611f296028913960400191505060405180910390fd5b6001600160a01b03841661098a5760405162461bcd60e51b8152600401808060200182810382526025815260200180611e566025913960400191505060405180910390fd5b6109926114e7565b6001600160a01b0316856001600160a01b031614806109bd57506109bd856109b86114e7565b6111bb565b6109f85760405162461bcd60e51b8152600401808060200182810382526032815260200180611e7b6032913960400191505060405180910390fd5b6000610a026114e7565b9050610a12818787878787610c00565b60005b8451811015610b18576000858281518110610a2c57fe5b602002602001015190506000858381518110610a4457fe5b60200260200101519050610ab1816040518060600160405280602a8152602001611ead602a91396002600086815260200190815260200160002060008d6001600160a01b03166001600160a01b03168152602001908152602001600020546114eb9092919063ffffffff16565b60008381526002602090815260408083206001600160a01b038e811685529252808320939093558a1681522054610ae89082611582565b60009283526002602090815260408085206001600160a01b038c1686529091529092209190915550600101610a15565b50846001600160a01b0316866001600160a01b0316826001600160a01b03167f4a39dc06d4c0dbc64b70af90fd698a233a518aa5d07e595d983b8c0526c8f7fb8787604051808060200180602001838103835285818151815260200191508051906020019060200280838360005b83811015610b9e578181015183820152602001610b86565b50505050905001838103825284818151815260200191508051906020019060200280838360005b83811015610bdd578181015183820152602001610bc5565b5050505090500194505050505060405180910390a4610c008187878787876115e3565b505050505050565b60608151835114610c4a5760405162461bcd60e51b8152600401808060200182810382526029815260200180611f006029913960400191505060405180910390fd5b6000835167ffffffffffffffff81118015610c6457600080fd5b50604051908082528060200260200182016040528015610c8e578160200160208202803683370190505b50905060005b8451811015610cec57610ccd858281518110610cac57fe5b6020026020010151858381518110610cc057fe5b60200260200101516107da565b828281518110610cd957fe5b6020908102919091010152600101610c94565b509392505050565b610cfc6114e7565b6001600160a01b0316610d0d610e70565b6001600160a01b031614610d68576040805162461bcd60e51b815260206004820181905260248201527f4f776e61626c653a2063616c6c6572206973206e6f7420746865206f776e6572604482015290519081900360640190fd5b600080546040516001600160a01b03909116907f8be0079c531659141344cd1fd0a4f28419497f9722a3daafe3b4186f6b6457e0908390a36000805473ffffffffffffffffffffffffffffffffffffffff19169055565b600a81565b610dcc6114e7565b6001600160a01b0316610ddd610e70565b6001600160a01b031614610e38576040805162461bcd60e51b815260206004820181905260248201527f4f776e61626c653a2063616c6c6572206973206e6f7420746865206f776e6572604482015290519081900360640190fd5b6000610e44600c61187b565b9050610e50600c61187f565b610e6c8282600160405180602001604052806000815250611888565b5050565b6000546001600160a01b03165b90565b816001600160a01b0316610e926114e7565b6001600160a01b03161415610ed85760405162461bcd60e51b8152600401808060200182810382526029815260200180611ed76029913960400191505060405180910390fd5b8060036000610ee56114e7565b6001600160a01b03908116825260208083019390935260409182016000908120918716808252919093529120805460ff191692151592909217909155610f296114e7565b6001600160a01b03167f17307eab39ab6107e8899845ad3d59bd9653f200f220920489ca2b5937696c318360405180821515815260200191505060405180910390a35050565b610f776114e7565b6001600160a01b0316610f88610e70565b6001600160a01b031614610fe3576040805162461bcd60e51b815260206004820181905260248201527f4f776e61626c653a2063616c6c6572206973206e6f7420746865206f776e6572604482015290519081900360640190fd5b610fed8282611990565b1515600114611043576040805162461bcd60e51b815260206004820152601360248201527f4e6f74206f776e6572206f6620746f6b656e2e00000000000000000000000000604482015290519081900360640190fd5b6000818152600d602052604090205460ff16156110a7576040805162461bcd60e51b815260206004820152601c60248201527f52657761726420436865737420616c7265616479206f70656e65642e00000000604482015290519081900360640190fd5b600a54600b546040517fd291ba0900000000000000000000000000000000000000000000000000000000815260016024808301829052604483018290526001600160a01b039384166064840181905260806004850190815260848501839052600096959095169463d291ba09948493829160a40190611f728239604001945050505050602060405180830381600087803b15801561114457600080fd5b505af1158015611158573d6000803e3d6000fd5b505050506040513d602081101561116e57600080fd5b50516000818152600e60205260409020839055905061118d83826119a5565b505050565b60076020526000908152604090205481565b601e81565b60066020526000908152604090205481565b6001600160a01b03918216600090815260036020908152604080832093909416825291909152205460ff1690565b6001600160a01b03841661122e5760405162461bcd60e51b8152600401808060200182810382526025815260200180611e566025913960400191505060405180910390fd5b6112366114e7565b6001600160a01b0316856001600160a01b0316148061125c575061125c856109b86114e7565b6112975760405162461bcd60e51b8152600401808060200182810382526029815260200180611e2d6029913960400191505060405180910390fd5b60006112a16114e7565b90506112c18187876112b288611a18565b6112bb88611a18565b87610c00565b611308836040518060600160405280602a8152602001611ead602a913960008781526002602090815260408083206001600160a01b038d16845290915290205491906114eb565b60008581526002602090815260408083206001600160a01b038b8116855292528083209390935587168152205461133f9084611582565b60008581526002602090815260408083206001600160a01b03808b168086529184529382902094909455805188815291820187905280518a8416938616927fc3d58168c5ae7397731d063d5bbf3d657854427343f4c083240f7aacaa2d0f6292908290030190a4610c00818787878787611a5d565b6113bc6114e7565b6001600160a01b03166113cd610e70565b6001600160a01b031614611428576040805162461bcd60e51b815260206004820181905260248201527f4f776e61626c653a2063616c6c6572206973206e6f7420746865206f776e6572604482015290519081900360640190fd5b6001600160a01b03811661146d5760405162461bcd60e51b8152600401808060200182810382526026815260200180611e076026913960400191505060405180910390fd5b600080546040516001600160a01b03808516939216917f8be0079c531659141344cd1fd0a4f28419497f9722a3daafe3b4186f6b6457e091a36000805473ffffffffffffffffffffffffffffffffffffffff19166001600160a01b0392909216919091179055565b60086020526000908152604090205481565b3390565b6000818484111561157a5760405162461bcd60e51b81526004018080602001828103825283818151815260200191508051906020019080838360005b8381101561153f578181015183820152602001611527565b50505050905090810190601f16801561156c5780820380516001836020036101000a031916815260200191505b509250505060405180910390fd5b505050900390565b6000828201838110156115dc576040805162461bcd60e51b815260206004820152601b60248201527f536166654d6174683a206164646974696f6e206f766572666c6f770000000000604482015290519081900360640190fd5b9392505050565b6115f5846001600160a01b0316611be7565b15610c0057836001600160a01b031663bc197c8187878686866040518663ffffffff1660e01b815260040180866001600160a01b03168152602001856001600160a01b03168152602001806020018060200180602001848103845287818151815260200191508051906020019060200280838360005b8381101561168357818101518382015260200161166b565b50505050905001848103835286818151815260200191508051906020019060200280838360005b838110156116c25781810151838201526020016116aa565b50505050905001848103825285818151815260200191508051906020019080838360005b838110156116fe5781810151838201526020016116e6565b50505050905090810190601f16801561172b5780820380516001836020036101000a031916815260200191505b5098505050505050505050602060405180830381600087803b15801561175057600080fd5b505af192505050801561177557506040513d602081101561177057600080fd5b505160015b61180a57611781611cda565b8061178c57506117d3565b60405162461bcd60e51b815260206004820181815283516024840152835184939192839260440191908501908083836000831561153f578181015183820152602001611527565b60405162461bcd60e51b8152600401808060200182810382526034815260200180611d806034913960400191505060405180910390fd5b6001600160e01b031981167fbc197c8100000000000000000000000000000000000000000000000000000000146118725760405162461bcd60e51b8152600401808060200182810382526028815260200180611db46028913960400191505060405180910390fd5b50505050505050565b5490565b80546001019055565b6001600160a01b0384166118cd5760405162461bcd60e51b8152600401808060200182810382526021815260200180611f516021913960400191505060405180910390fd5b60006118d76114e7565b90506118e9816000876112b288611a18565b60008481526002602090815260408083206001600160a01b03891684529091529020546119169084611582565b60008581526002602090815260408083206001600160a01b03808b16808652918452828520959095558151898152928301889052815190948616927fc3d58168c5ae7397731d063d5bbf3d657854427343f4c083240f7aacaa2d0f6292908290030190a461198981600087878787611a5d565b5050505050565b600061199c83836107da565b15159392505050565b6000818152600e60209081526040808320548352600d909152812060010154905b6001811015611a1257600a8210156119e9576119e3846001611bed565b50611a0a565b601e8210156119fd576119e3846001611c3a565b611a08846001611c87565b505b6001016119c6565b50505050565b60408051600180825281830190925260609160009190602080830190803683370190505090508281600081518110611a4c57fe5b602090810291909101015292915050565b611a6f846001600160a01b0316611be7565b15610c0057836001600160a01b031663f23a6e6187878686866040518663ffffffff1660e01b815260040180866001600160a01b03168152602001856001600160a01b0316815260200184815260200183815260200180602001828103825283818151815260200191508051906020019080838360005b83811015611afe578181015183820152602001611ae6565b50505050905090810190601f168015611b2b5780820380516001836020036101000a031916815260200191505b509650505050505050602060405180830381600087803b158015611b4e57600080fd5b505af1925050508015611b7357506040513d6020811015611b6e57600080fd5b505160015b611b7f57611781611cda565b6001600160e01b031981167ff23a6e6100000000000000000000000000000000000000000000000000000000146118725760405162461bcd60e51b8152600401808060200182810382526028815260200180611db46028913960400191505060405180910390fd5b3b151590565b6000611bf9600561187f565b6000611c05600561187b565b90508260066000838152602001908152602001600020819055506115dc84828560405180602001604052806000815250611888565b6000611c46600561187f565b6000611c52600561187b565b90508260076000838152602001908152602001600020819055506115dc84828560405180602001604052806000815250611888565b6000611c93600561187f565b6000611c9f600561187b565b90508260086000838152602001908152602001600020819055506115dc84828560405180602001604052806000815250611888565b60e01c90565b600060443d1015611cea57610e7d565b600481823e6308c379a0611cfe8251611cd4565b14611d0857610e7d565b6040513d600319016004823e80513d67ffffffffffffffff8160248401118184111715611d385750505050610e7d565b82840192508251915080821115611d525750505050610e7d565b503d83016020828401011115611d6a57505050610e7d565b601f01601f191681016020016040529150509056fe455243313135353a207472616e7366657220746f206e6f6e2045524331313535526563656976657220696d706c656d656e746572455243313135353a204552433131353552656365697665722072656a656374656420746f6b656e73455243313135353a2062616c616e636520717565727920666f7220746865207a65726f20616464726573734f776e61626c653a206e6577206f776e657220697320746865207a65726f2061646472657373455243313135353a2063616c6c6572206973206e6f74206f776e6572206e6f7220617070726f766564455243313135353a207472616e7366657220746f20746865207a65726f2061646472657373455243313135353a207472616e736665722063616c6c6572206973206e6f74206f776e6572206e6f7220617070726f766564455243313135353a20696e73756666696369656e742062616c616e636520666f72207472616e73666572455243313135353a2073657474696e6720617070726f76616c2073746174757320666f722073656c66455243313135353a206163636f756e747320616e6420696473206c656e677468206d69736d61746368455243313135353a2069647320616e6420616d6f756e7473206c656e677468206d69736d61746368455243313135353a206d696e7420746f20746865207a65726f206164647265737366696e69736852657761726443686573742875696e743235362c75696e743235365b5d29a2646970667358221220a892c94f49328d49d717468a6cc78b4d60d4174f9e89245d9230b6690c8e4bfa64736f6c63430007060033",
  "linkReferences": {},
  "deployedLinkReferences": {}
}