{
  "_format": "hh-sol-artifact-1",
  "contractName": "Rewards",
  "sourceName": "contracts/Rewards.sol",
  "abi": [
    {
      "inputs": [],
      "stateMutability": "nonpayable",
      "type": "constructor"
    },
    {
      "anonymous": false,
      "inputs": [
        {
          "indexed": true,
          "internalType": "address",
          "name": "account",
          "type": "address"
        },
        {
          "indexed": true,
          "internalType": "address",
          "name": "operator",
          "type": "address"
        },
        {
          "indexed": false,
          "internalType": "bool",
          "name": "approved",
          "type": "bool"
        }
      ],
      "name": "ApprovalForAll",
      "type": "event"
    },
    {
      "anonymous": false,
      "inputs": [
        {
          "indexed": true,
          "internalType": "address",
          "name": "operator",
          "type": "address"
        },
        {
          "indexed": true,
          "internalType": "address",
          "name": "from",
          "type": "address"
        },
        {
          "indexed": true,
          "internalType": "address",
          "name": "to",
          "type": "address"
        },
        {
          "indexed": false,
          "internalType": "uint256[]",
          "name": "ids",
          "type": "uint256[]"
        },
        {
          "indexed": false,
          "internalType": "uint256[]",
          "name": "values",
          "type": "uint256[]"
        }
      ],
      "name": "TransferBatch",
      "type": "event"
    },
    {
      "anonymous": false,
      "inputs": [
        {
          "indexed": true,
          "internalType": "address",
          "name": "operator",
          "type": "address"
        },
        {
          "indexed": true,
          "internalType": "address",
          "name": "from",
          "type": "address"
        },
        {
          "indexed": true,
          "internalType": "address",
          "name": "to",
          "type": "address"
        },
        {
          "indexed": false,
          "internalType": "uint256",
          "name": "id",
          "type": "uint256"
        },
        {
          "indexed": false,
          "internalType": "uint256",
          "name": "value",
          "type": "uint256"
        }
      ],
      "name": "TransferSingle",
      "type": "event"
    },
    {
      "anonymous": false,
      "inputs": [
        {
          "indexed": false,
          "internalType": "string",
          "name": "value",
          "type": "string"
        },
        {
          "indexed": true,
          "internalType": "uint256",
          "name": "id",
          "type": "uint256"
        }
      ],
      "name": "URI",
      "type": "event"
    },
    {
      "inputs": [
        {
          "internalType": "address",
          "name": "account",
          "type": "address"
        },
        {
          "internalType": "uint256",
          "name": "id",
          "type": "uint256"
        }
      ],
      "name": "balanceOf",
      "outputs": [
        {
          "internalType": "uint256",
          "name": "",
          "type": "uint256"
        }
      ],
      "stateMutability": "view",
      "type": "function"
    },
    {
      "inputs": [
        {
          "internalType": "address[]",
          "name": "accounts",
          "type": "address[]"
        },
        {
          "internalType": "uint256[]",
          "name": "ids",
          "type": "uint256[]"
        }
      ],
      "name": "balanceOfBatch",
      "outputs": [
        {
          "internalType": "uint256[]",
          "name": "",
          "type": "uint256[]"
        }
      ],
      "stateMutability": "view",
      "type": "function"
    },
    {
      "inputs": [],
      "name": "digitalWearable1DropRate",
      "outputs": [
        {
          "internalType": "uint256",
          "name": "",
          "type": "uint256"
        }
      ],
      "stateMutability": "view",
      "type": "function"
    },
    {
      "inputs": [
        {
          "internalType": "uint256",
          "name": "",
          "type": "uint256"
        }
      ],
      "name": "digitalWearable1Supply",
      "outputs": [
        {
          "internalType": "uint256",
          "name": "",
          "type": "uint256"
        }
      ],
      "stateMutability": "view",
      "type": "function"
    },
    {
      "inputs": [],
      "name": "digitalWearable2DropRate",
      "outputs": [
        {
          "internalType": "uint256",
          "name": "",
          "type": "uint256"
        }
      ],
      "stateMutability": "view",
      "type": "function"
    },
    {
      "inputs": [
        {
          "internalType": "uint256",
          "name": "",
          "type": "uint256"
        }
      ],
      "name": "digitalWearable2Supply",
      "outputs": [
        {
          "internalType": "uint256",
          "name": "",
          "type": "uint256"
        }
      ],
      "stateMutability": "view",
      "type": "function"
    },
    {
      "inputs": [],
      "name": "digitalWearable3DropRate",
      "outputs": [
        {
          "internalType": "uint256",
          "name": "",
          "type": "uint256"
        }
      ],
      "stateMutability": "view",
      "type": "function"
    },
    {
      "inputs": [
        {
          "internalType": "uint256",
          "name": "",
          "type": "uint256"
        }
      ],
      "name": "digitalWearable3Supply",
      "outputs": [
        {
          "internalType": "uint256",
          "name": "",
          "type": "uint256"
        }
      ],
      "stateMutability": "view",
      "type": "function"
    },
    {
      "inputs": [
        {
          "internalType": "address",
          "name": "account",
          "type": "address"
        },
        {
          "internalType": "address",
          "name": "operator",
          "type": "address"
        }
      ],
      "name": "isApprovedForAll",
      "outputs": [
        {
          "internalType": "bool",
          "name": "",
          "type": "bool"
        }
      ],
      "stateMutability": "view",
      "type": "function"
    },
    {
      "inputs": [
        {
          "internalType": "address",
          "name": "from",
          "type": "address"
        },
        {
          "internalType": "address",
          "name": "to",
          "type": "address"
        },
        {
          "internalType": "uint256[]",
          "name": "ids",
          "type": "uint256[]"
        },
        {
          "internalType": "uint256[]",
          "name": "amounts",
          "type": "uint256[]"
        },
        {
          "internalType": "bytes",
          "name": "data",
          "type": "bytes"
        }
      ],
      "name": "safeBatchTransferFrom",
      "outputs": [],
      "stateMutability": "nonpayable",
      "type": "function"
    },
    {
      "inputs": [
        {
          "internalType": "address",
          "name": "from",
          "type": "address"
        },
        {
          "internalType": "address",
          "name": "to",
          "type": "address"
        },
        {
          "internalType": "uint256",
          "name": "id",
          "type": "uint256"
        },
        {
          "internalType": "uint256",
          "name": "amount",
          "type": "uint256"
        },
        {
          "internalType": "bytes",
          "name": "data",
          "type": "bytes"
        }
      ],
      "name": "safeTransferFrom",
      "outputs": [],
      "stateMutability": "nonpayable",
      "type": "function"
    },
    {
      "inputs": [
        {
          "internalType": "address",
          "name": "operator",
          "type": "address"
        },
        {
          "internalType": "bool",
          "name": "approved",
          "type": "bool"
        }
      ],
      "name": "setApprovalForAll",
      "outputs": [],
      "stateMutability": "nonpayable",
      "type": "function"
    },
    {
      "inputs": [
        {
          "internalType": "bytes4",
          "name": "interfaceId",
          "type": "bytes4"
        }
      ],
      "name": "supportsInterface",
      "outputs": [
        {
          "internalType": "bool",
          "name": "",
          "type": "bool"
        }
      ],
      "stateMutability": "view",
      "type": "function"
    },
    {
      "inputs": [
        {
          "internalType": "uint256",
          "name": "",
          "type": "uint256"
        }
      ],
      "name": "uri",
      "outputs": [
        {
          "internalType": "string",
          "name": "",
          "type": "string"
        }
      ],
      "stateMutability": "view",
      "type": "function"
    }
  ],
  "bytecode": "0x60806040523480156200001157600080fd5b5060408051808201909152601581527f68747470733a2f2f6d657461646174612e6a736f6e00000000000000000000006020820152620000586301ffc9a760e01b6200008e565b620000638162000113565b62000075636cdb3d1360e11b6200008e565b620000876303a24d0760e21b6200008e565b50620001d8565b6001600160e01b03198082161415620000ee576040805162461bcd60e51b815260206004820152601c60248201527f4552433136353a20696e76616c696420696e7465726661636520696400000000604482015290519081900360640190fd5b6001600160e01b0319166000908152602081905260409020805460ff19166001179055565b8051620001289060039060208401906200012c565b5050565b828054600181600116156101000203166002900490600052602060002090601f016020900481019282620001645760008555620001af565b82601f106200017f57805160ff1916838001178555620001af565b82800160010185558215620001af579182015b82811115620001af57825182559160200191906001019062000192565b50620001bd929150620001c1565b5090565b5b80821115620001bd5760008155600101620001c2565b61170280620001e86000396000f3fe608060405234801561001057600080fd5b50600436106100e95760003560e01c8063a22cb4651161008c578063da9fcfad11610066578063da9fcfad1461059c578063e985e9c5146105b9578063f242432a146105e7578063f5c40db5146106b2576100e9565b8063a22cb46514610549578063c62c376d14610577578063d45b989a14610594576100e9565b80632b5ce9b1116100c85780632b5ce9b1146101f95780632eb2c2d6146102015780634e1273f4146103ca5780637cfe22ec14610541576100e9565b8062fdd58e146100ee57806301ffc9a71461012c5780630e89341c14610167575b600080fd5b61011a6004803603604081101561010457600080fd5b506001600160a01b0381351690602001356106cf565b60408051918252519081900360200190f35b6101536004803603602081101561014257600080fd5b50356001600160e01b03191661073e565b604080519115158252519081900360200190f35b6101846004803603602081101561017d57600080fd5b503561075d565b6040805160208082528351818301528351919283929083019185019080838360005b838110156101be5781810151838201526020016101a6565b50505050905090810190601f1680156101eb5780820380516001836020036101000a031916815260200191505b509250505060405180910390f35b61011a6107f5565b6103c8600480360360a081101561021757600080fd5b6001600160a01b03823581169260208101359091169181019060608101604082013564010000000081111561024b57600080fd5b82018360208201111561025d57600080fd5b8035906020019184602083028401116401000000008311171561027f57600080fd5b91908080602002602001604051908101604052809392919081815260200183836020028082843760009201919091525092959493602081019350359150506401000000008111156102cf57600080fd5b8201836020820111156102e157600080fd5b8035906020019184602083028401116401000000008311171561030357600080fd5b919080806020026020016040519081016040528093929190818152602001838360200280828437600092019190915250929594936020810193503591505064010000000081111561035357600080fd5b82018360208201111561036557600080fd5b8035906020019184600183028401116401000000008311171561038757600080fd5b91908080601f0160208091040260200160405190810160405280939291908181526020018383808284376000920191909152509295506107fa945050505050565b005b6104f1600480360360408110156103e057600080fd5b8101906020810181356401000000008111156103fb57600080fd5b82018360208201111561040d57600080fd5b8035906020019184602083028401116401000000008311171561042f57600080fd5b919080806020026020016040519081016040528093929190818152602001838360200280828437600092019190915250929594936020810193503591505064010000000081111561047f57600080fd5b82018360208201111561049157600080fd5b803590602001918460208302840111640100000000831117156104b357600080fd5b919080806020026020016040519081016040528093929190818152602001838360200280828437600092019190915250929550610af8945050505050565b60408051602080825283518183015283519192839290830191858101910280838360005b8381101561052d578181015183820152602001610515565b505050509050019250505060405180910390f35b61011a610be4565b6103c86004803603604081101561055f57600080fd5b506001600160a01b0381351690602001351515610be9565b61011a6004803603602081101561058d57600080fd5b5035610cd8565b61011a610cea565b61011a600480360360208110156105b257600080fd5b5035610cef565b610153600480360360408110156105cf57600080fd5b506001600160a01b0381358116916020013516610d01565b6103c8600480360360a08110156105fd57600080fd5b6001600160a01b03823581169260208101359091169160408201359160608101359181019060a08101608082013564010000000081111561063d57600080fd5b82018360208201111561064f57600080fd5b8035906020019184600183028401116401000000008311171561067157600080fd5b91908080601f016020809104026020016040519081016040528093929190818152602001838380828437600092019190915250929550610d2f945050505050565b61011a600480360360208110156106c857600080fd5b5035610efa565b60006001600160a01b0383166107165760405162461bcd60e51b815260040180806020018281038252602b81526020018061157e602b913960400191505060405180910390fd5b5060009081526001602090815260408083206001600160a01b03949094168352929052205490565b6001600160e01b03191660009081526020819052604090205460ff1690565b60038054604080516020601f60026000196101006001881615020190951694909404938401819004810282018101909252828152606093909290918301828280156107e95780601f106107be576101008083540402835291602001916107e9565b820191906000526020600020905b8154815290600101906020018083116107cc57829003601f168201915b50505050509050919050565b603c81565b815183511461083a5760405162461bcd60e51b81526004018080602001828103825260288152602001806116a56028913960400191505060405180910390fd5b6001600160a01b03841661087f5760405162461bcd60e51b81526004018080602001828103825260258152602001806115d26025913960400191505060405180910390fd5b610887610f0c565b6001600160a01b0316856001600160a01b031614806108b257506108b2856108ad610f0c565b610d01565b6108ed5760405162461bcd60e51b81526004018080602001828103825260328152602001806115f76032913960400191505060405180910390fd5b60006108f7610f0c565b9050610907818787878787610af0565b60005b8451811015610a0857600085828151811061092157fe5b60200260200101519050600085838151811061093957fe5b602002602001015190506109a6816040518060600160405280602a8152602001611629602a91396001600086815260200190815260200160002060008d6001600160a01b03166001600160a01b0316815260200190815260200160002054610f119092919063ffffffff16565b60008381526001602090815260408083206001600160a01b038e811685529252808320939093558a16815220546109dd9082610fa8565b60009283526001602081815260408086206001600160a01b038d16875290915290932055500161090a565b50846001600160a01b0316866001600160a01b0316826001600160a01b03167f4a39dc06d4c0dbc64b70af90fd698a233a518aa5d07e595d983b8c0526c8f7fb8787604051808060200180602001838103835285818151815260200191508051906020019060200280838360005b83811015610a8e578181015183820152602001610a76565b50505050905001838103825284818151815260200191508051906020019060200280838360005b83811015610acd578181015183820152602001610ab5565b5050505090500194505050505060405180910390a4610af0818787878787611009565b505050505050565b60608151835114610b3a5760405162461bcd60e51b815260040180806020018281038252602981526020018061167c6029913960400191505060405180910390fd5b6000835167ffffffffffffffff81118015610b5457600080fd5b50604051908082528060200260200182016040528015610b7e578160200160208202803683370190505b50905060005b8451811015610bdc57610bbd858281518110610b9c57fe5b6020026020010151858381518110610bb057fe5b60200260200101516106cf565b828281518110610bc957fe5b6020908102919091010152600101610b84565b509392505050565b600a81565b816001600160a01b0316610bfb610f0c565b6001600160a01b03161415610c415760405162461bcd60e51b81526004018080602001828103825260298152602001806116536029913960400191505060405180910390fd5b8060026000610c4e610f0c565b6001600160a01b03908116825260208083019390935260409182016000908120918716808252919093529120805460ff191692151592909217909155610c92610f0c565b6001600160a01b03167f17307eab39ab6107e8899845ad3d59bd9653f200f220920489ca2b5937696c318360405180821515815260200191505060405180910390a35050565b60066020526000908152604090205481565b601e81565b60056020526000908152604090205481565b6001600160a01b03918216600090815260026020908152604080832093909416825291909152205460ff1690565b6001600160a01b038416610d745760405162461bcd60e51b81526004018080602001828103825260258152602001806115d26025913960400191505060405180910390fd5b610d7c610f0c565b6001600160a01b0316856001600160a01b03161480610da25750610da2856108ad610f0c565b610ddd5760405162461bcd60e51b81526004018080602001828103825260298152602001806115a96029913960400191505060405180910390fd5b6000610de7610f0c565b9050610e07818787610df8886112a1565b610e01886112a1565b87610af0565b610e4e836040518060600160405280602a8152602001611629602a913960008781526001602090815260408083206001600160a01b038d1684529091529020549190610f11565b60008581526001602090815260408083206001600160a01b038b81168552925280832093909355871681522054610e859084610fa8565b60008581526001602090815260408083206001600160a01b03808b168086529184529382902094909455805188815291820187905280518a8416938616927fc3d58168c5ae7397731d063d5bbf3d657854427343f4c083240f7aacaa2d0f6292908290030190a4610af08187878787876112e6565b60076020526000908152604090205481565b335b90565b60008184841115610fa05760405162461bcd60e51b81526004018080602001828103825283818151815260200191508051906020019080838360005b83811015610f65578181015183820152602001610f4d565b50505050905090810190601f168015610f925780820380516001836020036101000a031916815260200191505b509250505060405180910390fd5b505050900390565b600082820183811015611002576040805162461bcd60e51b815260206004820152601b60248201527f536166654d6174683a206164646974696f6e206f766572666c6f770000000000604482015290519081900360640190fd5b9392505050565b61101b846001600160a01b0316611470565b15610af057836001600160a01b031663bc197c8187878686866040518663ffffffff1660e01b815260040180866001600160a01b03168152602001856001600160a01b03168152602001806020018060200180602001848103845287818151815260200191508051906020019060200280838360005b838110156110a9578181015183820152602001611091565b50505050905001848103835286818151815260200191508051906020019060200280838360005b838110156110e85781810151838201526020016110d0565b50505050905001848103825285818151815260200191508051906020019080838360005b8381101561112457818101518382015260200161110c565b50505050905090810190601f1680156111515780820380516001836020036101000a031916815260200191505b5098505050505050505050602060405180830381600087803b15801561117657600080fd5b505af192505050801561119b57506040513d602081101561119657600080fd5b505160015b611230576111a761147c565b806111b257506111f9565b60405162461bcd60e51b8152602060048201818152835160248401528351849391928392604401919085019080838360008315610f65578181015183820152602001610f4d565b60405162461bcd60e51b81526004018080602001828103825260348152602001806115226034913960400191505060405180910390fd5b6001600160e01b031981167fbc197c8100000000000000000000000000000000000000000000000000000000146112985760405162461bcd60e51b81526004018080602001828103825260288152602001806115566028913960400191505060405180910390fd5b50505050505050565b604080516001808252818301909252606091600091906020808301908036833701905050905082816000815181106112d557fe5b602090810291909101015292915050565b6112f8846001600160a01b0316611470565b15610af057836001600160a01b031663f23a6e6187878686866040518663ffffffff1660e01b815260040180866001600160a01b03168152602001856001600160a01b0316815260200184815260200183815260200180602001828103825283818151815260200191508051906020019080838360005b8381101561138757818101518382015260200161136f565b50505050905090810190601f1680156113b45780820380516001836020036101000a031916815260200191505b509650505050505050602060405180830381600087803b1580156113d757600080fd5b505af19250505080156113fc57506040513d60208110156113f757600080fd5b505160015b611408576111a761147c565b6001600160e01b031981167ff23a6e6100000000000000000000000000000000000000000000000000000000146112985760405162461bcd60e51b81526004018080602001828103825260288152602001806115566028913960400191505060405180910390fd5b3b151590565b60e01c90565b600060443d101561148c57610f0e565b600481823e6308c379a06114a08251611476565b146114aa57610f0e565b6040513d600319016004823e80513d67ffffffffffffffff81602484011181841117156114da5750505050610f0e565b828401925082519150808211156114f45750505050610f0e565b503d8301602082840101111561150c57505050610f0e565b601f01601f191681016020016040529150509056fe455243313135353a207472616e7366657220746f206e6f6e2045524331313535526563656976657220696d706c656d656e746572455243313135353a204552433131353552656365697665722072656a656374656420746f6b656e73455243313135353a2062616c616e636520717565727920666f7220746865207a65726f2061646472657373455243313135353a2063616c6c6572206973206e6f74206f776e6572206e6f7220617070726f766564455243313135353a207472616e7366657220746f20746865207a65726f2061646472657373455243313135353a207472616e736665722063616c6c6572206973206e6f74206f776e6572206e6f7220617070726f766564455243313135353a20696e73756666696369656e742062616c616e636520666f72207472616e73666572455243313135353a2073657474696e6720617070726f76616c2073746174757320666f722073656c66455243313135353a206163636f756e747320616e6420696473206c656e677468206d69736d61746368455243313135353a2069647320616e6420616d6f756e7473206c656e677468206d69736d61746368a2646970667358221220291705a6a8c1a50707212526267392f6563f32d6b16536a899de9237f3fa1bd064736f6c63430007060033",
  "linkReferences": {},
  "deployedLinkReferences": {}
}